{
  "_format": "hh-sol-artifact-1",
  "contractName": "RegToken",
  "sourceName": "contracts/RegToken.sol",
  "abi": [
    {
      "inputs": [],
      "stateMutability": "nonpayable",
      "type": "constructor"
    },
    {
      "anonymous": false,
      "inputs": [
        {
          "indexed": true,
          "internalType": "address",
          "name": "owner",
          "type": "address"
        },
        {
          "indexed": true,
          "internalType": "address",
          "name": "approved",
          "type": "address"
        },
        {
          "indexed": true,
          "internalType": "uint256",
          "name": "tokenId",
          "type": "uint256"
        }
      ],
      "name": "Approval",
      "type": "event"
    },
    {
      "anonymous": false,
      "inputs": [
        {
          "indexed": true,
          "internalType": "address",
          "name": "owner",
          "type": "address"
        },
        {
          "indexed": true,
          "internalType": "address",
          "name": "operator",
          "type": "address"
        },
        {
          "indexed": false,
          "internalType": "bool",
          "name": "approved",
          "type": "bool"
        }
      ],
      "name": "ApprovalForAll",
      "type": "event"
    },
    {
      "anonymous": false,
      "inputs": [
        {
          "indexed": false,
          "internalType": "address",
          "name": "pl1",
          "type": "address"
        },
        {
          "indexed": false,
          "internalType": "address",
          "name": "pl2",
          "type": "address"
        }
      ],
      "name": "Macth",
      "type": "event"
    },
    {
      "anonymous": false,
      "inputs": [
        {
          "indexed": true,
          "internalType": "address",
          "name": "previousOwner",
          "type": "address"
        },
        {
          "indexed": true,
          "internalType": "address",
          "name": "newOwner",
          "type": "address"
        }
      ],
      "name": "OwnershipTransferred",
      "type": "event"
    },
    {
      "anonymous": false,
      "inputs": [
        {
          "indexed": true,
          "internalType": "address",
          "name": "from",
          "type": "address"
        },
        {
          "indexed": true,
          "internalType": "address",
          "name": "to",
          "type": "address"
        },
        {
          "indexed": true,
          "internalType": "uint256",
          "name": "tokenId",
          "type": "uint256"
        }
      ],
      "name": "Transfer",
      "type": "event"
    },
    {
      "inputs": [
        {
          "internalType": "address",
          "name": "to",
          "type": "address"
        },
        {
          "internalType": "uint256",
          "name": "tokenId",
          "type": "uint256"
        }
      ],
      "name": "approve",
      "outputs": [],
      "stateMutability": "nonpayable",
      "type": "function"
    },
    {
      "inputs": [
        {
          "internalType": "address",
          "name": "owner",
          "type": "address"
        }
      ],
      "name": "balanceOf",
      "outputs": [
        {
          "internalType": "uint256",
          "name": "",
          "type": "uint256"
        }
      ],
      "stateMutability": "view",
      "type": "function"
    },
    {
      "inputs": [
        {
          "internalType": "string",
          "name": "str1",
          "type": "string"
        },
        {
          "internalType": "string",
          "name": "str2",
          "type": "string"
        }
      ],
      "name": "compare",
      "outputs": [
        {
          "internalType": "bool",
          "name": "",
          "type": "bool"
        }
      ],
      "stateMutability": "pure",
      "type": "function"
    },
    {
      "inputs": [
        {
          "internalType": "uint256",
          "name": "tokenId",
          "type": "uint256"
        }
      ],
      "name": "getApproved",
      "outputs": [
        {
          "internalType": "address",
          "name": "",
          "type": "address"
        }
      ],
      "stateMutability": "view",
      "type": "function"
    },
    {
      "inputs": [
        {
          "internalType": "address",
          "name": "owner",
          "type": "address"
        },
        {
          "internalType": "address",
          "name": "operator",
          "type": "address"
        }
      ],
      "name": "isApprovedForAll",
      "outputs": [
        {
          "internalType": "bool",
          "name": "",
          "type": "bool"
        }
      ],
      "stateMutability": "view",
      "type": "function"
    },
    {
      "inputs": [
        {
          "internalType": "uint256",
          "name": "",
          "type": "uint256"
        }
      ],
      "name": "metaData",
      "outputs": [
        {
          "internalType": "string",
          "name": "name",
          "type": "string"
        },
        {
          "internalType": "string",
          "name": "symbol",
          "type": "string"
        },
        {
          "internalType": "string",
          "name": "description",
          "type": "string"
        },
        {
          "internalType": "int256",
          "name": "size",
          "type": "int256"
        }
      ],
      "stateMutability": "view",
      "type": "function"
    },
    {
      "inputs": [],
      "name": "name",
      "outputs": [
        {
          "internalType": "string",
          "name": "",
          "type": "string"
        }
      ],
      "stateMutability": "view",
      "type": "function"
    },
    {
      "inputs": [],
      "name": "owner",
      "outputs": [
        {
          "internalType": "address",
          "name": "",
          "type": "address"
        }
      ],
      "stateMutability": "view",
      "type": "function"
    },
    {
      "inputs": [
        {
          "internalType": "uint256",
          "name": "tokenId",
          "type": "uint256"
        }
      ],
      "name": "ownerOf",
      "outputs": [
        {
          "internalType": "address",
          "name": "",
          "type": "address"
        }
      ],
      "stateMutability": "view",
      "type": "function"
    },
    {
      "inputs": [],
      "name": "renounceOwnership",
      "outputs": [],
      "stateMutability": "nonpayable",
      "type": "function"
    },
    {
      "inputs": [
        {
          "internalType": "address",
          "name": "to",
          "type": "address"
        },
        {
          "internalType": "string",
          "name": "uri",
          "type": "string"
        }
      ],
      "name": "safeMint",
      "outputs": [],
      "stateMutability": "nonpayable",
      "type": "function"
    },
    {
      "inputs": [
        {
          "internalType": "address",
          "name": "from",
          "type": "address"
        },
        {
          "internalType": "address",
          "name": "to",
          "type": "address"
        },
        {
          "internalType": "uint256",
          "name": "tokenId",
          "type": "uint256"
        }
      ],
      "name": "safeTransferFrom",
      "outputs": [],
      "stateMutability": "nonpayable",
      "type": "function"
    },
    {
      "inputs": [
        {
          "internalType": "address",
          "name": "from",
          "type": "address"
        },
        {
          "internalType": "address",
          "name": "to",
          "type": "address"
        },
        {
          "internalType": "uint256",
          "name": "tokenId",
          "type": "uint256"
        },
        {
          "internalType": "bytes",
          "name": "data",
          "type": "bytes"
        }
      ],
      "name": "safeTransferFrom",
      "outputs": [],
      "stateMutability": "nonpayable",
      "type": "function"
    },
    {
      "inputs": [
        {
          "internalType": "address",
          "name": "operator",
          "type": "address"
        },
        {
          "internalType": "bool",
          "name": "approved",
          "type": "bool"
        }
      ],
      "name": "setApprovalForAll",
      "outputs": [],
      "stateMutability": "nonpayable",
      "type": "function"
    },
    {
      "inputs": [
        {
          "internalType": "bytes4",
          "name": "interfaceId",
          "type": "bytes4"
        }
      ],
      "name": "supportsInterface",
      "outputs": [
        {
          "internalType": "bool",
          "name": "",
          "type": "bool"
        }
      ],
      "stateMutability": "view",
      "type": "function"
    },
    {
      "inputs": [],
      "name": "symbol",
      "outputs": [
        {
          "internalType": "string",
          "name": "",
          "type": "string"
        }
      ],
      "stateMutability": "view",
      "type": "function"
    },
    {
      "inputs": [
        {
          "internalType": "uint256",
          "name": "tokenId",
          "type": "uint256"
        }
      ],
      "name": "tokenURI",
      "outputs": [
        {
          "internalType": "string",
          "name": "",
          "type": "string"
        }
      ],
      "stateMutability": "view",
      "type": "function"
    },
    {
      "inputs": [
        {
          "internalType": "address",
          "name": "from",
          "type": "address"
        },
        {
          "internalType": "address",
          "name": "to",
          "type": "address"
        },
        {
          "internalType": "uint256",
          "name": "tokenId",
          "type": "uint256"
        }
      ],
      "name": "transferFrom",
      "outputs": [],
      "stateMutability": "nonpayable",
      "type": "function"
    },
    {
      "inputs": [
        {
          "internalType": "address",
          "name": "newOwner",
          "type": "address"
        }
      ],
      "name": "transferOwnership",
      "outputs": [],
      "stateMutability": "nonpayable",
      "type": "function"
    },
    {
      "inputs": [
        {
          "internalType": "uint256",
          "name": "tokenId",
          "type": "uint256"
        },
        {
          "internalType": "string",
          "name": "name",
          "type": "string"
        },
        {
          "internalType": "string",
          "name": "symbol",
          "type": "string"
        },
        {
          "internalType": "string",
          "name": "description",
          "type": "string"
        },
        {
          "internalType": "int256",
          "name": "size",
          "type": "int256"
        }
      ],
      "name": "updateMetaData",
      "outputs": [],
      "stateMutability": "nonpayable",
      "type": "function"
    }
  ],
  "bytecode": "0x60806040523480156200001157600080fd5b506040518060400160405280600881526020017f526567546f6b656e0000000000000000000000000000000000000000000000008152506040518060400160405280600381526020017f524754000000000000000000000000000000000000000000000000000000000081525081600090816200008f91906200055a565b508060019081620000a191906200055a565b505050620000c4620000b86200021260201b60201c565b6200021a60201b60201c565b60405180608001604052806040518060400160405280600981526020017f526567546f6b656e30000000000000000000000000000000000000000000000081525081526020016040518060400160405280600381526020017f524754000000000000000000000000000000000000000000000000000000000081525081526020016040518060400160405280601c81526020017f466972737420526567546f6b656e20696e20636f6c6c656374696f6e0000000081525081526020017fffffffffffffffffffffffffffffffffffffffffffffffffffffffffffffffff815250600860008081526020019081526020016000206000820151816000019081620001ce91906200055a565b506020820151816001019081620001e691906200055a565b506040820151816002019081620001fe91906200055a565b506060820151816003015590505062000641565b600033905090565b6000600760009054906101000a900473ffffffffffffffffffffffffffffffffffffffff16905081600760006101000a81548173ffffffffffffffffffffffffffffffffffffffff021916908373ffffffffffffffffffffffffffffffffffffffff1602179055508173ffffffffffffffffffffffffffffffffffffffff168173ffffffffffffffffffffffffffffffffffffffff167f8be0079c531659141344cd1fd0a4f28419497f9722a3daafe3b4186f6b6457e060405160405180910390a35050565b600081519050919050565b7f4e487b7100000000000000000000000000000000000000000000000000000000600052604160045260246000fd5b7f4e487b7100000000000000000000000000000000000000000000000000000000600052602260045260246000fd5b600060028204905060018216806200036257607f821691505b6020821081036200037857620003776200031a565b5b50919050565b60008190508160005260206000209050919050565b60006020601f8301049050919050565b600082821b905092915050565b600060088302620003e27fffffffffffffffffffffffffffffffffffffffffffffffffffffffffffffffff82620003a3565b620003ee8683620003a3565b95508019841693508086168417925050509392505050565b6000819050919050565b6000819050919050565b60006200043b620004356200042f8462000406565b62000410565b62000406565b9050919050565b6000819050919050565b62000457836200041a565b6200046f620004668262000442565b848454620003b0565b825550505050565b600090565b6200048662000477565b620004938184846200044c565b505050565b5b81811015620004bb57620004af6000826200047c565b60018101905062000499565b5050565b601f8211156200050a57620004d4816200037e565b620004df8462000393565b81016020851015620004ef578190505b62000507620004fe8562000393565b83018262000498565b50505b505050565b600082821c905092915050565b60006200052f600019846008026200050f565b1980831691505092915050565b60006200054a83836200051c565b9150826002028217905092915050565b6200056582620002e0565b67ffffffffffffffff811115620005815762000580620002eb565b5b6200058d825462000349565b6200059a828285620004bf565b600060209050601f831160018114620005d25760008415620005bd578287015190505b620005c985826200053c565b86555062000639565b601f198416620005e2866200037e565b60005b828110156200060c57848901518255600182019150602085019450602081019050620005e5565b868310156200062c578489015162000628601f8916826200051c565b8355505b6001600288020188555050505b505050505050565b6133ea80620006516000396000f3fe608060405234801561001057600080fd5b506004361061012c5760003560e01c806370a08231116100ad578063b88d4fde11610071578063b88d4fde14610344578063c87b56dd14610360578063d204c45e14610390578063e985e9c5146103ac578063f2fde38b146103dc5761012c565b806370a08231146102b2578063715018a6146102e25780638da5cb5b146102ec57806395d89b411461030a578063a22cb465146103285761012c565b806323b872dd116100f457806323b872dd146101fe5780633a96fdd71461021a5780634227c31f1461024a57806342842e0e146102665780636352211e146102825761012c565b806301ffc9a71461013157806306fdde0314610161578063081812fc1461017f578063095ea7b3146101af5780631d909276146101cb575b600080fd5b61014b60048036038101906101469190611faf565b6103f8565b6040516101589190611ff7565b60405180910390f35b6101696104da565b60405161017691906120a2565b60405180910390f35b610199600480360381019061019491906120fa565b61056c565b6040516101a69190612168565b60405180910390f35b6101c960048036038101906101c491906121af565b6105b2565b005b6101e560048036038101906101e091906120fa565b6106c9565b6040516101f59493929190612208565b60405180910390f35b61021860048036038101906102139190612262565b610891565b005b610234600480360381019061022f91906123ea565b6108f1565b6040516102419190611ff7565b60405180910390f35b610264600480360381019061025f919061248e565b61094a565b005b610280600480360381019061027b9190612262565b6109e1565b005b61029c600480360381019061029791906120fa565b610a01565b6040516102a99190612168565b60405180910390f35b6102cc60048036038101906102c7919061255d565b610a87565b6040516102d99190612599565b60405180910390f35b6102ea610b3e565b005b6102f4610b52565b6040516103019190612168565b60405180910390f35b610312610b7c565b60405161031f91906120a2565b60405180910390f35b610342600480360381019061033d91906125e0565b610c0e565b005b61035e600480360381019061035991906126c1565b610c24565b005b61037a600480360381019061037591906120fa565b610c86565b60405161038791906120a2565b60405180910390f35b6103aa60048036038101906103a59190612744565b610c98565b005b6103c660048036038101906103c191906127a0565b610cd1565b6040516103d39190611ff7565b60405180910390f35b6103f660048036038101906103f1919061255d565b610d65565b005b60007f80ac58cd000000000000000000000000000000000000000000000000000000007bffffffffffffffffffffffffffffffffffffffffffffffffffffffff1916827bffffffffffffffffffffffffffffffffffffffffffffffffffffffff191614806104c357507f5b5e139f000000000000000000000000000000000000000000000000000000007bffffffffffffffffffffffffffffffffffffffffffffffffffffffff1916827bffffffffffffffffffffffffffffffffffffffffffffffffffffffff1916145b806104d357506104d282610de8565b5b9050919050565b6060600080546104e99061280f565b80601f01602080910402602001604051908101604052809291908181526020018280546105159061280f565b80156105625780601f1061053757610100808354040283529160200191610562565b820191906000526020600020905b81548152906001019060200180831161054557829003601f168201915b5050505050905090565b600061057782610e52565b6004600083815260200190815260200160002060009054906101000a900473ffffffffffffffffffffffffffffffffffffffff169050919050565b60006105bd82610a01565b90508073ffffffffffffffffffffffffffffffffffffffff168373ffffffffffffffffffffffffffffffffffffffff160361062d576040517f08c379a0000000000000000000000000000000000000000000000000000000008152600401610624906128b2565b60405180910390fd5b8073ffffffffffffffffffffffffffffffffffffffff1661064c610e9d565b73ffffffffffffffffffffffffffffffffffffffff16148061067b575061067a81610675610e9d565b610cd1565b5b6106ba576040517f08c379a00000000000000000000000000000000000000000000000000000000081526004016106b190612944565b60405180910390fd5b6106c48383610ea5565b505050565b60086020528060005260406000206000915090508060000180546106ec9061280f565b80601f01602080910402602001604051908101604052809291908181526020018280546107189061280f565b80156107655780601f1061073a57610100808354040283529160200191610765565b820191906000526020600020905b81548152906001019060200180831161074857829003601f168201915b50505050509080600101805461077a9061280f565b80601f01602080910402602001604051908101604052809291908181526020018280546107a69061280f565b80156107f35780601f106107c8576101008083540402835291602001916107f3565b820191906000526020600020905b8154815290600101906020018083116107d657829003601f168201915b5050505050908060020180546108089061280f565b80601f01602080910402602001604051908101604052809291908181526020018280546108349061280f565b80156108815780601f1061085657610100808354040283529160200191610881565b820191906000526020600020905b81548152906001019060200180831161086457829003601f168201915b5050505050908060030154905084565b6108a261089c610e9d565b82610f5e565b6108e1576040517f08c379a00000000000000000000000000000000000000000000000000000000081526004016108d8906129d6565b60405180910390fd5b6108ec838383610ff3565b505050565b6000816040516020016109049190612a32565b604051602081830303815290604052805190602001208360405160200161092b9190612a32565b6040516020818303038152906040528051906020012014905092915050565b6000851161095757600080fd5b6040518060800160405280858152602001848152602001838152602001828152506008600087815260200190815260200160002060008201518160000190816109a09190612bf5565b5060208201518160010190816109b69190612bf5565b5060408201518160020190816109cc9190612bf5565b50606082015181600301559050505050505050565b6109fc83838360405180602001604052806000815250610c24565b505050565b600080610a0d836112ec565b9050600073ffffffffffffffffffffffffffffffffffffffff168173ffffffffffffffffffffffffffffffffffffffff1603610a7e576040517f08c379a0000000000000000000000000000000000000000000000000000000008152600401610a7590612d13565b60405180910390fd5b80915050919050565b60008073ffffffffffffffffffffffffffffffffffffffff168273ffffffffffffffffffffffffffffffffffffffff1603610af7576040517f08c379a0000000000000000000000000000000000000000000000000000000008152600401610aee90612da5565b60405180910390fd5b600360008373ffffffffffffffffffffffffffffffffffffffff1673ffffffffffffffffffffffffffffffffffffffff168152602001908152602001600020549050919050565b610b46611329565b610b5060006113a7565b565b6000600760009054906101000a900473ffffffffffffffffffffffffffffffffffffffff16905090565b606060018054610b8b9061280f565b80601f0160208091040260200160405190810160405280929190818152602001828054610bb79061280f565b8015610c045780601f10610bd957610100808354040283529160200191610c04565b820191906000526020600020905b815481529060010190602001808311610be757829003601f168201915b5050505050905090565b610c20610c19610e9d565b838361146d565b5050565b610c35610c2f610e9d565b83610f5e565b610c74576040517f08c379a0000000000000000000000000000000000000000000000000000000008152600401610c6b906129d6565b60405180910390fd5b610c80848484846115d9565b50505050565b6060610c9182611635565b9050919050565b610ca0611329565b6000610cac6009611747565b9050610cb86009611755565b610cc2838261176b565b610ccc8183611789565b505050565b6000600560008473ffffffffffffffffffffffffffffffffffffffff1673ffffffffffffffffffffffffffffffffffffffff16815260200190815260200160002060008373ffffffffffffffffffffffffffffffffffffffff1673ffffffffffffffffffffffffffffffffffffffff16815260200190815260200160002060009054906101000a900460ff16905092915050565b610d6d611329565b600073ffffffffffffffffffffffffffffffffffffffff168173ffffffffffffffffffffffffffffffffffffffff1603610ddc576040517f08c379a0000000000000000000000000000000000000000000000000000000008152600401610dd390612e37565b60405180910390fd5b610de5816113a7565b50565b60007f01ffc9a7000000000000000000000000000000000000000000000000000000007bffffffffffffffffffffffffffffffffffffffffffffffffffffffff1916827bffffffffffffffffffffffffffffffffffffffffffffffffffffffff1916149050919050565b610e5b816117f6565b610e9a576040517f08c379a0000000000000000000000000000000000000000000000000000000008152600401610e9190612d13565b60405180910390fd5b50565b600033905090565b816004600083815260200190815260200160002060006101000a81548173ffffffffffffffffffffffffffffffffffffffff021916908373ffffffffffffffffffffffffffffffffffffffff160217905550808273ffffffffffffffffffffffffffffffffffffffff16610f1883610a01565b73ffffffffffffffffffffffffffffffffffffffff167f8c5be1e5ebec7d5bd14f71427d1e84f3dd0314c0f7b2291e5b200ac8c7c3b92560405160405180910390a45050565b600080610f6a83610a01565b90508073ffffffffffffffffffffffffffffffffffffffff168473ffffffffffffffffffffffffffffffffffffffff161480610fac5750610fab8185610cd1565b5b80610fea57508373ffffffffffffffffffffffffffffffffffffffff16610fd28461056c565b73ffffffffffffffffffffffffffffffffffffffff16145b91505092915050565b8273ffffffffffffffffffffffffffffffffffffffff1661101382610a01565b73ffffffffffffffffffffffffffffffffffffffff1614611069576040517f08c379a000000000000000000000000000000000000000000000000000000000815260040161106090612ec9565b60405180910390fd5b600073ffffffffffffffffffffffffffffffffffffffff168273ffffffffffffffffffffffffffffffffffffffff16036110d8576040517f08c379a00000000000000000000000000000000000000000000000000000000081526004016110cf90612f5b565b60405180910390fd5b6110e58383836001611837565b8273ffffffffffffffffffffffffffffffffffffffff1661110582610a01565b73ffffffffffffffffffffffffffffffffffffffff161461115b576040517f08c379a000000000000000000000000000000000000000000000000000000000815260040161115290612ec9565b60405180910390fd5b6004600082815260200190815260200160002060006101000a81549073ffffffffffffffffffffffffffffffffffffffff02191690556001600360008573ffffffffffffffffffffffffffffffffffffffff1673ffffffffffffffffffffffffffffffffffffffff168152602001908152602001600020600082825403925050819055506001600360008473ffffffffffffffffffffffffffffffffffffffff1673ffffffffffffffffffffffffffffffffffffffff16815260200190815260200160002060008282540192505081905550816002600083815260200190815260200160002060006101000a81548173ffffffffffffffffffffffffffffffffffffffff021916908373ffffffffffffffffffffffffffffffffffffffff160217905550808273ffffffffffffffffffffffffffffffffffffffff168473ffffffffffffffffffffffffffffffffffffffff167fddf252ad1be2c89b69c2b068fc378daa952ba7f163c4a11628f55a4df523b3ef60405160405180910390a46112e78383836001611875565b505050565b60006002600083815260200190815260200160002060009054906101000a900473ffffffffffffffffffffffffffffffffffffffff169050919050565b611331610e9d565b73ffffffffffffffffffffffffffffffffffffffff1661134f610b52565b73ffffffffffffffffffffffffffffffffffffffff16146113a5576040517f08c379a000000000000000000000000000000000000000000000000000000000815260040161139c90612fc7565b60405180910390fd5b565b6000600760009054906101000a900473ffffffffffffffffffffffffffffffffffffffff16905081600760006101000a81548173ffffffffffffffffffffffffffffffffffffffff021916908373ffffffffffffffffffffffffffffffffffffffff1602179055508173ffffffffffffffffffffffffffffffffffffffff168173ffffffffffffffffffffffffffffffffffffffff167f8be0079c531659141344cd1fd0a4f28419497f9722a3daafe3b4186f6b6457e060405160405180910390a35050565b8173ffffffffffffffffffffffffffffffffffffffff168373ffffffffffffffffffffffffffffffffffffffff16036114db576040517f08c379a00000000000000000000000000000000000000000000000000000000081526004016114d290613033565b60405180910390fd5b80600560008573ffffffffffffffffffffffffffffffffffffffff1673ffffffffffffffffffffffffffffffffffffffff16815260200190815260200160002060008473ffffffffffffffffffffffffffffffffffffffff1673ffffffffffffffffffffffffffffffffffffffff16815260200190815260200160002060006101000a81548160ff0219169083151502179055508173ffffffffffffffffffffffffffffffffffffffff168373ffffffffffffffffffffffffffffffffffffffff167f17307eab39ab6107e8899845ad3d59bd9653f200f220920489ca2b5937696c31836040516115cc9190611ff7565b60405180910390a3505050565b6115e4848484610ff3565b6115f08484848461187b565b61162f576040517f08c379a0000000000000000000000000000000000000000000000000000000008152600401611626906130c5565b60405180910390fd5b50505050565b606061164082610e52565b60006006600084815260200190815260200160002080546116609061280f565b80601f016020809104026020016040519081016040528092919081815260200182805461168c9061280f565b80156116d95780601f106116ae576101008083540402835291602001916116d9565b820191906000526020600020905b8154815290600101906020018083116116bc57829003601f168201915b5050505050905060006116ea611a02565b905060008151036116ff578192505050611742565b60008251111561173457808260405160200161171c9291906130e5565b60405160208183030381529060405292505050611742565b61173d84611a19565b925050505b919050565b600081600001549050919050565b6001816000016000828254019250508190555050565b611785828260405180602001604052806000815250611a81565b5050565b611792826117f6565b6117d1576040517f08c379a00000000000000000000000000000000000000000000000000000000081526004016117c89061317b565b60405180910390fd5b806006600084815260200190815260200160002090816117f19190612bf5565b505050565b60008073ffffffffffffffffffffffffffffffffffffffff16611818836112ec565b73ffffffffffffffffffffffffffffffffffffffff1614159050919050565b6118448484846001611adc565b6002600a60006101000a81548160ff0219169083600581111561186a5761186961319b565b5b021790555050505050565b50505050565b600061189c8473ffffffffffffffffffffffffffffffffffffffff16611ae2565b156119f5578373ffffffffffffffffffffffffffffffffffffffff1663150b7a026118c5610e9d565b8786866040518563ffffffff1660e01b81526004016118e7949392919061321f565b6020604051808303816000875af192505050801561192357506040513d601f19601f820116820180604052508101906119209190613280565b60015b6119a5573d8060008114611953576040519150601f19603f3d011682016040523d82523d6000602084013e611958565b606091505b50600081510361199d576040517f08c379a0000000000000000000000000000000000000000000000000000000008152600401611994906130c5565b60405180910390fd5b805181602001fd5b63150b7a0260e01b7bffffffffffffffffffffffffffffffffffffffffffffffffffffffff1916817bffffffffffffffffffffffffffffffffffffffffffffffffffffffff1916149150506119fa565b600190505b949350505050565b606060405180602001604052806000815250905090565b6060611a2482610e52565b6000611a2e611a02565b90506000815111611a4e5760405180602001604052806000815250611a79565b80611a5884611b05565b604051602001611a699291906130e5565b6040516020818303038152906040525b915050919050565b611a8b8383611bd3565b611a98600084848461187b565b611ad7576040517f08c379a0000000000000000000000000000000000000000000000000000000008152600401611ace906130c5565b60405180910390fd5b505050565b50505050565b6000808273ffffffffffffffffffffffffffffffffffffffff163b119050919050565b606060006001611b1484611df0565b01905060008167ffffffffffffffff811115611b3357611b326122bf565b5b6040519080825280601f01601f191660200182016040528015611b655781602001600182028036833780820191505090505b509050600082602001820190505b600115611bc8578080600190039150507f3031323334353637383961626364656600000000000000000000000000000000600a86061a8153600a8581611bbc57611bbb6132ad565b5b04945060008503611b73575b819350505050919050565b600073ffffffffffffffffffffffffffffffffffffffff168273ffffffffffffffffffffffffffffffffffffffff1603611c42576040517f08c379a0000000000000000000000000000000000000000000000000000000008152600401611c3990613328565b60405180910390fd5b611c4b816117f6565b15611c8b576040517f08c379a0000000000000000000000000000000000000000000000000000000008152600401611c8290613394565b60405180910390fd5b611c99600083836001611837565b611ca2816117f6565b15611ce2576040517f08c379a0000000000000000000000000000000000000000000000000000000008152600401611cd990613394565b60405180910390fd5b6001600360008473ffffffffffffffffffffffffffffffffffffffff1673ffffffffffffffffffffffffffffffffffffffff16815260200190815260200160002060008282540192505081905550816002600083815260200190815260200160002060006101000a81548173ffffffffffffffffffffffffffffffffffffffff021916908373ffffffffffffffffffffffffffffffffffffffff160217905550808273ffffffffffffffffffffffffffffffffffffffff16600073ffffffffffffffffffffffffffffffffffffffff167fddf252ad1be2c89b69c2b068fc378daa952ba7f163c4a11628f55a4df523b3ef60405160405180910390a4611dec600083836001611875565b5050565b600080600090507a184f03e93ff9f4daa797ed6e38ed64bf6a1f0100000000000000008310611e4e577a184f03e93ff9f4daa797ed6e38ed64bf6a1f0100000000000000008381611e4457611e436132ad565b5b0492506040810190505b6d04ee2d6d415b85acef81000000008310611e8b576d04ee2d6d415b85acef81000000008381611e8157611e806132ad565b5b0492506020810190505b662386f26fc100008310611eba57662386f26fc100008381611eb057611eaf6132ad565b5b0492506010810190505b6305f5e1008310611ee3576305f5e1008381611ed957611ed86132ad565b5b0492506008810190505b6127108310611f08576127108381611efe57611efd6132ad565b5b0492506004810190505b60648310611f2b5760648381611f2157611f206132ad565b5b0492506002810190505b600a8310611f3a576001810190505b80915050919050565b6000604051905090565b600080fd5b600080fd5b60007fffffffff0000000000000000000000000000000000000000000000000000000082169050919050565b611f8c81611f57565b8114611f9757600080fd5b50565b600081359050611fa981611f83565b92915050565b600060208284031215611fc557611fc4611f4d565b5b6000611fd384828501611f9a565b91505092915050565b60008115159050919050565b611ff181611fdc565b82525050565b600060208201905061200c6000830184611fe8565b92915050565b600081519050919050565b600082825260208201905092915050565b60005b8381101561204c578082015181840152602081019050612031565b60008484015250505050565b6000601f19601f8301169050919050565b600061207482612012565b61207e818561201d565b935061208e81856020860161202e565b61209781612058565b840191505092915050565b600060208201905081810360008301526120bc8184612069565b905092915050565b6000819050919050565b6120d7816120c4565b81146120e257600080fd5b50565b6000813590506120f4816120ce565b92915050565b6000602082840312156121105761210f611f4d565b5b600061211e848285016120e5565b91505092915050565b600073ffffffffffffffffffffffffffffffffffffffff82169050919050565b600061215282612127565b9050919050565b61216281612147565b82525050565b600060208201905061217d6000830184612159565b92915050565b61218c81612147565b811461219757600080fd5b50565b6000813590506121a981612183565b92915050565b600080604083850312156121c6576121c5611f4d565b5b60006121d48582860161219a565b92505060206121e5858286016120e5565b9150509250929050565b6000819050919050565b612202816121ef565b82525050565b600060808201905081810360008301526122228187612069565b905081810360208301526122368186612069565b9050818103604083015261224a8185612069565b905061225960608301846121f9565b95945050505050565b60008060006060848603121561227b5761227a611f4d565b5b60006122898682870161219a565b935050602061229a8682870161219a565b92505060406122ab868287016120e5565b9150509250925092565b600080fd5b600080fd5b7f4e487b7100000000000000000000000000000000000000000000000000000000600052604160045260246000fd5b6122f782612058565b810181811067ffffffffffffffff82111715612316576123156122bf565b5b80604052505050565b6000612329611f43565b905061233582826122ee565b919050565b600067ffffffffffffffff821115612355576123546122bf565b5b61235e82612058565b9050602081019050919050565b82818337600083830152505050565b600061238d6123888461233a565b61231f565b9050828152602081018484840111156123a9576123a86122ba565b5b6123b484828561236b565b509392505050565b600082601f8301126123d1576123d06122b5565b5b81356123e184826020860161237a565b91505092915050565b6000806040838503121561240157612400611f4d565b5b600083013567ffffffffffffffff81111561241f5761241e611f52565b5b61242b858286016123bc565b925050602083013567ffffffffffffffff81111561244c5761244b611f52565b5b612458858286016123bc565b9150509250929050565b61246b816121ef565b811461247657600080fd5b50565b60008135905061248881612462565b92915050565b600080600080600060a086880312156124aa576124a9611f4d565b5b60006124b8888289016120e5565b955050602086013567ffffffffffffffff8111156124d9576124d8611f52565b5b6124e5888289016123bc565b945050604086013567ffffffffffffffff81111561250657612505611f52565b5b612512888289016123bc565b935050606086013567ffffffffffffffff81111561253357612532611f52565b5b61253f888289016123bc565b925050608061255088828901612479565b9150509295509295909350565b60006020828403121561257357612572611f4d565b5b60006125818482850161219a565b91505092915050565b612593816120c4565b82525050565b60006020820190506125ae600083018461258a565b92915050565b6125bd81611fdc565b81146125c857600080fd5b50565b6000813590506125da816125b4565b92915050565b600080604083850312156125f7576125f6611f4d565b5b60006126058582860161219a565b9250506020612616858286016125cb565b9150509250929050565b600067ffffffffffffffff82111561263b5761263a6122bf565b5b61264482612058565b9050602081019050919050565b600061266461265f84612620565b61231f565b9050828152602081018484840111156126805761267f6122ba565b5b61268b84828561236b565b509392505050565b600082601f8301126126a8576126a76122b5565b5b81356126b8848260208601612651565b91505092915050565b600080600080608085870312156126db576126da611f4d565b5b60006126e98782880161219a565b94505060206126fa8782880161219a565b935050604061270b878288016120e5565b925050606085013567ffffffffffffffff81111561272c5761272b611f52565b5b61273887828801612693565b91505092959194509250565b6000806040838503121561275b5761275a611f4d565b5b60006127698582860161219a565b925050602083013567ffffffffffffffff81111561278a57612789611f52565b5b612796858286016123bc565b9150509250929050565b600080604083850312156127b7576127b6611f4d565b5b60006127c58582860161219a565b92505060206127d68582860161219a565b9150509250929050565b7f4e487b7100000000000000000000000000000000000000000000000000000000600052602260045260246000fd5b6000600282049050600182168061282757607f821691505b60208210810361283a576128396127e0565b5b50919050565b7f4552433732313a20617070726f76616c20746f2063757272656e74206f776e6560008201527f7200000000000000000000000000000000000000000000000000000000000000602082015250565b600061289c60218361201d565b91506128a782612840565b604082019050919050565b600060208201905081810360008301526128cb8161288f565b9050919050565b7f4552433732313a20617070726f76652063616c6c6572206973206e6f7420746f60008201527f6b656e206f776e6572206f7220617070726f76656420666f7220616c6c000000602082015250565b600061292e603d8361201d565b9150612939826128d2565b604082019050919050565b6000602082019050818103600083015261295d81612921565b9050919050565b7f4552433732313a2063616c6c6572206973206e6f7420746f6b656e206f776e6560008201527f72206f7220617070726f76656400000000000000000000000000000000000000602082015250565b60006129c0602d8361201d565b91506129cb82612964565b604082019050919050565b600060208201905081810360008301526129ef816129b3565b9050919050565b600081905092915050565b6000612a0c82612012565b612a1681856129f6565b9350612a2681856020860161202e565b80840191505092915050565b6000612a3e8284612a01565b915081905092915050565b60008190508160005260206000209050919050565b60006020601f8301049050919050565b600082821b905092915050565b600060088302612aab7fffffffffffffffffffffffffffffffffffffffffffffffffffffffffffffffff82612a6e565b612ab58683612a6e565b95508019841693508086168417925050509392505050565b6000819050919050565b6000612af2612aed612ae8846120c4565b612acd565b6120c4565b9050919050565b6000819050919050565b612b0c83612ad7565b612b20612b1882612af9565b848454612a7b565b825550505050565b600090565b612b35612b28565b612b40818484612b03565b505050565b5b81811015612b6457612b59600082612b2d565b600181019050612b46565b5050565b601f821115612ba957612b7a81612a49565b612b8384612a5e565b81016020851015612b92578190505b612ba6612b9e85612a5e565b830182612b45565b50505b505050565b600082821c905092915050565b6000612bcc60001984600802612bae565b1980831691505092915050565b6000612be58383612bbb565b9150826002028217905092915050565b612bfe82612012565b67ffffffffffffffff811115612c1757612c166122bf565b5b612c21825461280f565b612c2c828285612b68565b600060209050601f831160018114612c5f5760008415612c4d578287015190505b612c578582612bd9565b865550612cbf565b601f198416612c6d86612a49565b60005b82811015612c9557848901518255600182019150602085019450602081019050612c70565b86831015612cb25784890151612cae601f891682612bbb565b8355505b6001600288020188555050505b505050505050565b7f4552433732313a20696e76616c696420746f6b656e2049440000000000000000600082015250565b6000612cfd60188361201d565b9150612d0882612cc7565b602082019050919050565b60006020820190508181036000830152612d2c81612cf0565b9050919050565b7f4552433732313a2061646472657373207a65726f206973206e6f74206120766160008201527f6c6964206f776e65720000000000000000000000000000000000000000000000602082015250565b6000612d8f60298361201d565b9150612d9a82612d33565b604082019050919050565b60006020820190508181036000830152612dbe81612d82565b9050919050565b7f4f776e61626c653a206e6577206f776e657220697320746865207a65726f206160008201527f6464726573730000000000000000000000000000000000000000000000000000602082015250565b6000612e2160268361201d565b9150612e2c82612dc5565b604082019050919050565b60006020820190508181036000830152612e5081612e14565b9050919050565b7f4552433732313a207472616e736665722066726f6d20696e636f72726563742060008201527f6f776e6572000000000000000000000000000000000000000000000000000000602082015250565b6000612eb360258361201d565b9150612ebe82612e57565b604082019050919050565b60006020820190508181036000830152612ee281612ea6565b9050919050565b7f4552433732313a207472616e7366657220746f20746865207a65726f2061646460008201527f7265737300000000000000000000000000000000000000000000000000000000602082015250565b6000612f4560248361201d565b9150612f5082612ee9565b604082019050919050565b60006020820190508181036000830152612f7481612f38565b9050919050565b7f4f776e61626c653a2063616c6c6572206973206e6f7420746865206f776e6572600082015250565b6000612fb160208361201d565b9150612fbc82612f7b565b602082019050919050565b60006020820190508181036000830152612fe081612fa4565b9050919050565b7f4552433732313a20617070726f766520746f2063616c6c657200000000000000600082015250565b600061301d60198361201d565b915061302882612fe7565b602082019050919050565b6000602082019050818103600083015261304c81613010565b9050919050565b7f4552433732313a207472616e7366657220746f206e6f6e20455243373231526560008201527f63656976657220696d706c656d656e7465720000000000000000000000000000602082015250565b60006130af60328361201d565b91506130ba82613053565b604082019050919050565b600060208201905081810360008301526130de816130a2565b9050919050565b60006130f18285612a01565b91506130fd8284612a01565b91508190509392505050565b7f45524337323155524953746f726167653a2055524920736574206f66206e6f6e60008201527f6578697374656e7420746f6b656e000000000000000000000000000000000000602082015250565b6000613165602e8361201d565b915061317082613109565b604082019050919050565b6000602082019050818103600083015261319481613158565b9050919050565b7f4e487b7100000000000000000000000000000000000000000000000000000000600052602160045260246000fd5b600081519050919050565b600082825260208201905092915050565b60006131f1826131ca565b6131fb81856131d5565b935061320b81856020860161202e565b61321481612058565b840191505092915050565b60006080820190506132346000830187612159565b6132416020830186612159565b61324e604083018561258a565b818103606083015261326081846131e6565b905095945050505050565b60008151905061327a81611f83565b92915050565b60006020828403121561329657613295611f4d565b5b60006132a48482850161326b565b91505092915050565b7f4e487b7100000000000000000000000000000000000000000000000000000000600052601260045260246000fd5b7f4552433732313a206d696e7420746f20746865207a65726f2061646472657373600082015250565b600061331260208361201d565b915061331d826132dc565b602082019050919050565b6000602082019050818103600083015261334181613305565b9050919050565b7f4552433732313a20746f6b656e20616c7265616479206d696e74656400000000600082015250565b600061337e601c8361201d565b915061338982613348565b602082019050919050565b600060208201905081810360008301526133ad81613371565b905091905056fea26469706673582212204ad7aa749f2b5855f98bd99516faf5f0b2aa98e162af0d431dd70366b069a87664736f6c63430008110033",
  "linkReferences": {},
  "deployedLinkReferences": {}
}