{
  "_format": "hh-sol-artifact-1",
  "contractName": "RegToken",
  "sourceName": "contracts/RegToken.sol",
  "abi": [
    {
      "inputs": [],
      "stateMutability": "nonpayable",
      "type": "constructor"
    },
    {
      "anonymous": false,
      "inputs": [
        {
          "indexed": true,
          "internalType": "address",
          "name": "owner",
          "type": "address"
        },
        {
          "indexed": true,
          "internalType": "address",
          "name": "approved",
          "type": "address"
        },
        {
          "indexed": true,
          "internalType": "uint256",
          "name": "tokenId",
          "type": "uint256"
        }
      ],
      "name": "Approval",
      "type": "event"
    },
    {
      "anonymous": false,
      "inputs": [
        {
          "indexed": true,
          "internalType": "address",
          "name": "owner",
          "type": "address"
        },
        {
          "indexed": true,
          "internalType": "address",
          "name": "operator",
          "type": "address"
        },
        {
          "indexed": false,
          "internalType": "bool",
          "name": "approved",
          "type": "bool"
        }
      ],
      "name": "ApprovalForAll",
      "type": "event"
    },
    {
      "anonymous": false,
      "inputs": [
        {
          "indexed": false,
          "internalType": "address",
          "name": "pl1",
          "type": "address"
        },
        {
          "indexed": false,
          "internalType": "address",
          "name": "pl2",
          "type": "address"
        }
      ],
      "name": "Macth",
      "type": "event"
    },
    {
      "anonymous": false,
      "inputs": [
        {
          "indexed": true,
          "internalType": "address",
          "name": "previousOwner",
          "type": "address"
        },
        {
          "indexed": true,
          "internalType": "address",
          "name": "newOwner",
          "type": "address"
        }
      ],
      "name": "OwnershipTransferred",
      "type": "event"
    },
    {
      "anonymous": false,
      "inputs": [
        {
          "indexed": true,
          "internalType": "address",
          "name": "from",
          "type": "address"
        },
        {
          "indexed": true,
          "internalType": "address",
          "name": "to",
          "type": "address"
        },
        {
          "indexed": true,
          "internalType": "uint256",
          "name": "tokenId",
          "type": "uint256"
        }
      ],
      "name": "Transfer",
      "type": "event"
    },
    {
      "inputs": [
        {
          "internalType": "uint256",
          "name": "tokenId",
          "type": "uint256"
        }
      ],
      "name": "GetMetaData",
      "outputs": [
        {
          "components": [
            {
              "internalType": "string",
              "name": "name",
              "type": "string"
            },
            {
              "internalType": "string",
              "name": "symbol",
              "type": "string"
            },
            {
              "internalType": "string",
              "name": "description",
              "type": "string"
            },
            {
              "internalType": "int256",
              "name": "size",
              "type": "int256"
            }
          ],
          "internalType": "struct RegMetaData",
          "name": "",
          "type": "tuple"
        }
      ],
      "stateMutability": "nonpayable",
      "type": "function"
    },
    {
      "inputs": [
        {
          "internalType": "uint256",
          "name": "tokenId",
          "type": "uint256"
        }
      ],
      "name": "GetName",
      "outputs": [
        {
          "internalType": "string",
          "name": "",
          "type": "string"
        }
      ],
      "stateMutability": "nonpayable",
      "type": "function"
    },
    {
      "inputs": [],
      "name": "TestStr",
      "outputs": [
        {
          "internalType": "string",
          "name": "",
          "type": "string"
        }
      ],
      "stateMutability": "nonpayable",
      "type": "function"
    },
    {
      "inputs": [
        {
          "internalType": "uint256",
          "name": "tokenId",
          "type": "uint256"
        }
      ],
      "name": "TestTest",
      "outputs": [
        {
          "internalType": "int256",
          "name": "",
          "type": "int256"
        }
      ],
      "stateMutability": "nonpayable",
      "type": "function"
    },
    {
      "inputs": [
        {
          "internalType": "address",
          "name": "to",
          "type": "address"
        },
        {
          "internalType": "uint256",
          "name": "tokenId",
          "type": "uint256"
        }
      ],
      "name": "approve",
      "outputs": [],
      "stateMutability": "nonpayable",
      "type": "function"
    },
    {
      "inputs": [
        {
          "internalType": "address",
          "name": "owner",
          "type": "address"
        }
      ],
      "name": "balanceOf",
      "outputs": [
        {
          "internalType": "uint256",
          "name": "",
          "type": "uint256"
        }
      ],
      "stateMutability": "view",
      "type": "function"
    },
    {
      "inputs": [
        {
          "internalType": "string",
          "name": "str1",
          "type": "string"
        },
        {
          "internalType": "string",
          "name": "str2",
          "type": "string"
        }
      ],
      "name": "compare",
      "outputs": [
        {
          "internalType": "bool",
          "name": "",
          "type": "bool"
        }
      ],
      "stateMutability": "pure",
      "type": "function"
    },
    {
      "inputs": [
        {
          "internalType": "address",
          "name": "generator",
          "type": "address"
        },
        {
          "internalType": "string",
          "name": "name",
          "type": "string"
        },
        {
          "internalType": "string",
          "name": "symbol",
          "type": "string"
        },
        {
          "internalType": "string",
          "name": "description",
          "type": "string"
        },
        {
          "internalType": "int256",
          "name": "size",
          "type": "int256"
        }
      ],
      "name": "createRegToken",
      "outputs": [
        {
          "internalType": "uint256",
          "name": "",
          "type": "uint256"
        }
      ],
      "stateMutability": "nonpayable",
      "type": "function"
    },
    {
      "inputs": [
        {
          "internalType": "uint256",
          "name": "tokenId",
          "type": "uint256"
        }
      ],
      "name": "getApproved",
      "outputs": [
        {
          "internalType": "address",
          "name": "",
          "type": "address"
        }
      ],
      "stateMutability": "view",
      "type": "function"
    },
    {
      "inputs": [
        {
          "internalType": "address",
          "name": "owner",
          "type": "address"
        },
        {
          "internalType": "address",
          "name": "operator",
          "type": "address"
        }
      ],
      "name": "isApprovedForAll",
      "outputs": [
        {
          "internalType": "bool",
          "name": "",
          "type": "bool"
        }
      ],
      "stateMutability": "view",
      "type": "function"
    },
    {
      "inputs": [
        {
          "internalType": "uint256",
          "name": "",
          "type": "uint256"
        }
      ],
      "name": "metaData",
      "outputs": [
        {
          "internalType": "string",
          "name": "name",
          "type": "string"
        },
        {
          "internalType": "string",
          "name": "symbol",
          "type": "string"
        },
        {
          "internalType": "string",
          "name": "description",
          "type": "string"
        },
        {
          "internalType": "int256",
          "name": "size",
          "type": "int256"
        }
      ],
      "stateMutability": "view",
      "type": "function"
    },
    {
      "inputs": [],
      "name": "name",
      "outputs": [
        {
          "internalType": "string",
          "name": "",
          "type": "string"
        }
      ],
      "stateMutability": "view",
      "type": "function"
    },
    {
      "inputs": [],
      "name": "orderStatus",
      "outputs": [
        {
          "internalType": "enum OrderStatus",
          "name": "",
          "type": "uint8"
        }
      ],
      "stateMutability": "view",
      "type": "function"
    },
    {
      "inputs": [],
      "name": "owner",
      "outputs": [
        {
          "internalType": "address",
          "name": "",
          "type": "address"
        }
      ],
      "stateMutability": "view",
      "type": "function"
    },
    {
      "inputs": [
        {
          "internalType": "uint256",
          "name": "tokenId",
          "type": "uint256"
        }
      ],
      "name": "ownerOf",
      "outputs": [
        {
          "internalType": "address",
          "name": "",
          "type": "address"
        }
      ],
      "stateMutability": "view",
      "type": "function"
    },
    {
      "inputs": [],
      "name": "renounceOwnership",
      "outputs": [],
      "stateMutability": "nonpayable",
      "type": "function"
    },
    {
      "inputs": [
        {
          "internalType": "address",
          "name": "to",
          "type": "address"
        },
        {
          "internalType": "string",
          "name": "uri",
          "type": "string"
        }
      ],
      "name": "safeMint",
      "outputs": [],
      "stateMutability": "nonpayable",
      "type": "function"
    },
    {
      "inputs": [
        {
          "internalType": "address",
          "name": "from",
          "type": "address"
        },
        {
          "internalType": "address",
          "name": "to",
          "type": "address"
        },
        {
          "internalType": "uint256",
          "name": "tokenId",
          "type": "uint256"
        }
      ],
      "name": "safeTransferFrom",
      "outputs": [],
      "stateMutability": "nonpayable",
      "type": "function"
    },
    {
      "inputs": [
        {
          "internalType": "address",
          "name": "from",
          "type": "address"
        },
        {
          "internalType": "address",
          "name": "to",
          "type": "address"
        },
        {
          "internalType": "uint256",
          "name": "tokenId",
          "type": "uint256"
        },
        {
          "internalType": "bytes",
          "name": "data",
          "type": "bytes"
        }
      ],
      "name": "safeTransferFrom",
      "outputs": [],
      "stateMutability": "nonpayable",
      "type": "function"
    },
    {
      "inputs": [
        {
          "internalType": "address",
          "name": "operator",
          "type": "address"
        },
        {
          "internalType": "bool",
          "name": "approved",
          "type": "bool"
        }
      ],
      "name": "setApprovalForAll",
      "outputs": [],
      "stateMutability": "nonpayable",
      "type": "function"
    },
    {
      "inputs": [],
      "name": "side",
      "outputs": [
        {
          "internalType": "string",
          "name": "",
          "type": "string"
        }
      ],
      "stateMutability": "view",
      "type": "function"
    },
    {
      "inputs": [],
      "name": "stam",
      "outputs": [
        {
          "internalType": "string",
          "name": "",
          "type": "string"
        }
      ],
      "stateMutability": "view",
      "type": "function"
    },
    {
      "inputs": [
        {
          "internalType": "bytes4",
          "name": "interfaceId",
          "type": "bytes4"
        }
      ],
      "name": "supportsInterface",
      "outputs": [
        {
          "internalType": "bool",
          "name": "",
          "type": "bool"
        }
      ],
      "stateMutability": "view",
      "type": "function"
    },
    {
      "inputs": [],
      "name": "symbol",
      "outputs": [
        {
          "internalType": "string",
          "name": "",
          "type": "string"
        }
      ],
      "stateMutability": "view",
      "type": "function"
    },
    {
      "inputs": [
        {
          "internalType": "uint256",
          "name": "tokenId",
          "type": "uint256"
        }
      ],
      "name": "tokenURI",
      "outputs": [
        {
          "internalType": "string",
          "name": "",
          "type": "string"
        }
      ],
      "stateMutability": "view",
      "type": "function"
    },
    {
      "inputs": [
        {
          "internalType": "address",
          "name": "from",
          "type": "address"
        },
        {
          "internalType": "address",
          "name": "to",
          "type": "address"
        },
        {
          "internalType": "uint256",
          "name": "tokenId",
          "type": "uint256"
        }
      ],
      "name": "transferFrom",
      "outputs": [],
      "stateMutability": "nonpayable",
      "type": "function"
    },
    {
      "inputs": [
        {
          "internalType": "address",
          "name": "newOwner",
          "type": "address"
        }
      ],
      "name": "transferOwnership",
      "outputs": [],
      "stateMutability": "nonpayable",
      "type": "function"
    },
    {
      "inputs": [
        {
          "internalType": "uint256",
          "name": "tokenId",
          "type": "uint256"
        },
        {
          "internalType": "string",
          "name": "name",
          "type": "string"
        },
        {
          "internalType": "string",
          "name": "symbol",
          "type": "string"
        },
        {
          "internalType": "string",
          "name": "description",
          "type": "string"
        },
        {
          "internalType": "int256",
          "name": "size",
          "type": "int256"
        }
      ],
      "name": "updateMetaData",
      "outputs": [],
      "stateMutability": "nonpayable",
      "type": "function"
    }
  ],
  "bytecode": "0x60806040523480156200001157600080fd5b506040518060400160405280600881526020017f526567546f6b656e0000000000000000000000000000000000000000000000008152506040518060400160405280600381526020017f524754000000000000000000000000000000000000000000000000000000000081525081600090816200008f9190620008f9565b508060019081620000a19190620008f9565b505050620000c4620000b86200042360201b60201c565b6200042b60201b60201c565b60405180608001604052806040518060400160405280600a81526020017f526567546f6b656e5f300000000000000000000000000000000000000000000081525081526020016040518060400160405280600381526020017f524754000000000000000000000000000000000000000000000000000000000081525081526020016040518060400160405280601c81526020017f466972737420526567546f6b656e20696e20636f6c6c656374696f6e0000000081525081526020017fffffffffffffffffffffffffffffffffffffffffffffffffffffffffffffffff815250600860008081526020019081526020016000206000820151816000019081620001ce9190620008f9565b506020820151816001019081620001e69190620008f9565b506040820151816002019081620001fe9190620008f9565b50606082015181600301559050506004600a60006101000a81548160ff02191690836005811115620002355762000234620009e0565b5b02179055506040518060400160405280600381526020017f4275790000000000000000000000000000000000000000000000000000000000815250600b9081620002809190620008f9565b50620002cc6040518060400160405280601381526020017f2b2b2b2b2b2b2b2b2b2b2b2b2b2b2b2b2b2b2b00000000000000000000000000815250620004f160201b620013f41760201c565b620003bb604051806060016040528060288152602001620049e56028913960006005811115620003015762000300620009e0565b5b600580811115620003175762000316620009e0565b5b600b80546200032690620006e8565b80601f01602080910402602001604051908101604052809291908181526020018280546200035490620006e8565b8015620003a55780601f106200037957610100808354040283529160200191620003a5565b820191906000526020600020905b8154815290600101906020018083116200038757829003601f168201915b50505050506200059460201b6200148d1760201c565b620004066040518060400160405280601381526020017f2b2b2b2b2b2b2b2b2b2b2b2b2b2b2b2b2b2b2b00000000000000000000000000815250620004f160201b620013f41760201c565b6200041d60096200064060201b6200152f1760201c565b62000b2e565b600033905090565b6000600760009054906101000a900473ffffffffffffffffffffffffffffffffffffffff16905081600760006101000a81548173ffffffffffffffffffffffffffffffffffffffff021916908373ffffffffffffffffffffffffffffffffffffffff1602179055508173ffffffffffffffffffffffffffffffffffffffff168173ffffffffffffffffffffffffffffffffffffffff167f8be0079c531659141344cd1fd0a4f28419497f9722a3daafe3b4186f6b6457e060405160405180910390a35050565b620005918160405160240162000508919062000a9e565b6040516020818303038152906040527f41304fac000000000000000000000000000000000000000000000000000000007bffffffffffffffffffffffffffffffffffffffffffffffffffffffff19166020820180517bffffffffffffffffffffffffffffffffffffffffffffffffffffffff83818316178352505050506200065660201b60201c565b50565b6200063a84848484604051602401620005b1949392919062000ad3565b6040516020818303038152906040527f854b3496000000000000000000000000000000000000000000000000000000007bffffffffffffffffffffffffffffffffffffffffffffffffffffffff19166020820180517bffffffffffffffffffffffffffffffffffffffffffffffffffffffff83818316178352505050506200065660201b60201c565b50505050565b6001816000016000828254019250508190555050565b60008151905060006a636f6e736f6c652e6c6f679050602083016000808483855afa5050505050565b600081519050919050565b7f4e487b7100000000000000000000000000000000000000000000000000000000600052604160045260246000fd5b7f4e487b7100000000000000000000000000000000000000000000000000000000600052602260045260246000fd5b600060028204905060018216806200070157607f821691505b602082108103620007175762000716620006b9565b5b50919050565b60008190508160005260206000209050919050565b60006020601f8301049050919050565b600082821b905092915050565b600060088302620007817fffffffffffffffffffffffffffffffffffffffffffffffffffffffffffffffff8262000742565b6200078d868362000742565b95508019841693508086168417925050509392505050565b6000819050919050565b6000819050919050565b6000620007da620007d4620007ce84620007a5565b620007af565b620007a5565b9050919050565b6000819050919050565b620007f683620007b9565b6200080e6200080582620007e1565b8484546200074f565b825550505050565b600090565b6200082562000816565b62000832818484620007eb565b505050565b5b818110156200085a576200084e6000826200081b565b60018101905062000838565b5050565b601f821115620008a95762000873816200071d565b6200087e8462000732565b810160208510156200088e578190505b620008a66200089d8562000732565b83018262000837565b50505b505050565b600082821c905092915050565b6000620008ce60001984600802620008ae565b1980831691505092915050565b6000620008e98383620008bb565b9150826002028217905092915050565b62000904826200067f565b67ffffffffffffffff81111562000920576200091f6200068a565b5b6200092c8254620006e8565b620009398282856200085e565b600060209050601f8311600181146200097157600084156200095c578287015190505b620009688582620008db565b865550620009d8565b601f19841662000981866200071d565b60005b82811015620009ab5784890151825560018201915060208501945060208101905062000984565b86831015620009cb5784890151620009c7601f891682620008bb565b8355505b6001600288020188555050505b505050505050565b7f4e487b7100000000000000000000000000000000000000000000000000000000600052602160045260246000fd5b600082825260208201905092915050565b60005b8381101562000a4057808201518184015260208101905062000a23565b60008484015250505050565b6000601f19601f8301169050919050565b600062000a6a826200067f565b62000a76818562000a0f565b935062000a8881856020860162000a20565b62000a938162000a4c565b840191505092915050565b6000602082019050818103600083015262000aba818462000a5d565b905092915050565b62000acd81620007a5565b82525050565b6000608082019050818103600083015262000aef818762000a5d565b905062000b00602083018662000ac2565b62000b0f604083018562000ac2565b818103606083015262000b23818462000a5d565b905095945050505050565b613ea78062000b3e6000396000f3fe608060405234801561001057600080fd5b50600436106101c45760003560e01c806370a08231116100f9578063b3d27d8411610097578063d204c45e11610071578063d204c45e14610530578063dd1a06c71461054c578063e985e9c51461057c578063f2fde38b146105ac576101c4565b8063b3d27d84146104c6578063b88d4fde146104e4578063c87b56dd14610500576101c4565b80638da5cb5b116100d35780638da5cb5b1461043e57806395d89b411461045c5780639fcce6701461047a578063a22cb465146104aa576101c4565b806370a08231146103e6578063715018a6146104165780638475c02814610420576101c4565b80633a96fdd71161016657806349215fea1161014057806349215fea146103385780635020702214610368578063554caa48146103865780636352211e146103b6576101c4565b80633a96fdd7146102d05780634227c31f1461030057806342842e0e1461031c576101c4565b8063095ea7b3116101a2578063095ea7b3146102475780631d9092761461026357806323b872dd146102965780632728e28b146102b2576101c4565b806301ffc9a7146101c957806306fdde03146101f9578063081812fc14610217575b600080fd5b6101e360048036038101906101de91906127e0565b6105c8565b6040516101f09190612828565b60405180910390f35b6102016106aa565b60405161020e91906128d3565b60405180910390f35b610231600480360381019061022c919061292b565b61073c565b60405161023e9190612999565b60405180910390f35b610261600480360381019061025c91906129e0565b610782565b005b61027d6004803603810190610278919061292b565b610899565b60405161028d9493929190612a39565b60405180910390f35b6102b060048036038101906102ab9190612a93565b610a61565b005b6102ba610ac1565b6040516102c79190612b5d565b60405180910390f35b6102ea60048036038101906102e59190612cad565b610ad4565b6040516102f79190612828565b60405180910390f35b61031a60048036038101906103159190612d51565b610b2d565b005b61033660048036038101906103319190612a93565b610bd4565b005b610352600480360381019061034d919061292b565b610bf4565b60405161035f9190612e20565b60405180910390f35b610370610c39565b60405161037d91906128d3565b60405180910390f35b6103a0600480360381019061039b9190612e3b565b610cc7565b6040516103ad9190612f19565b60405180910390f35b6103d060048036038101906103cb919061292b565b610d16565b6040516103dd9190612999565b60405180910390f35b61040060048036038101906103fb9190612f34565b610d9c565b60405161040d9190612f19565b60405180910390f35b61041e610e53565b005b610428610e67565b60405161043591906128d3565b60405180910390f35b610446610ef5565b6040516104539190612999565b60405180910390f35b610464610f1f565b60405161047191906128d3565b60405180910390f35b610494600480360381019061048f919061292b565b610fb1565b6040516104a191906128d3565b60405180910390f35b6104c460048036038101906104bf9190612f8d565b610ff0565b005b6104ce611006565b6040516104db91906128d3565b60405180910390f35b6104fe60048036038101906104f9919061306e565b611043565b005b61051a6004803603810190610515919061292b565b6110a5565b60405161052791906128d3565b60405180910390f35b61054a600480360381019061054591906130f1565b6110b7565b005b6105666004803603810190610561919061292b565b6110f0565b6040516105739190613217565b60405180910390f35b61059660048036038101906105919190613239565b6112dd565b6040516105a39190612828565b60405180910390f35b6105c660048036038101906105c19190612f34565b611371565b005b60007f80ac58cd000000000000000000000000000000000000000000000000000000007bffffffffffffffffffffffffffffffffffffffffffffffffffffffff1916827bffffffffffffffffffffffffffffffffffffffffffffffffffffffff1916148061069357507f5b5e139f000000000000000000000000000000000000000000000000000000007bffffffffffffffffffffffffffffffffffffffffffffffffffffffff1916827bffffffffffffffffffffffffffffffffffffffffffffffffffffffff1916145b806106a357506106a282611545565b5b9050919050565b6060600080546106b9906132a8565b80601f01602080910402602001604051908101604052809291908181526020018280546106e5906132a8565b80156107325780601f1061070757610100808354040283529160200191610732565b820191906000526020600020905b81548152906001019060200180831161071557829003601f168201915b5050505050905090565b6000610747826115af565b6004600083815260200190815260200160002060009054906101000a900473ffffffffffffffffffffffffffffffffffffffff169050919050565b600061078d82610d16565b90508073ffffffffffffffffffffffffffffffffffffffff168373ffffffffffffffffffffffffffffffffffffffff16036107fd576040517f08c379a00000000000000000000000000000000000000000000000000000000081526004016107f49061334b565b60405180910390fd5b8073ffffffffffffffffffffffffffffffffffffffff1661081c6115fa565b73ffffffffffffffffffffffffffffffffffffffff16148061084b575061084a816108456115fa565b6112dd565b5b61088a576040517f08c379a0000000000000000000000000000000000000000000000000000000008152600401610881906133dd565b60405180910390fd5b6108948383611602565b505050565b60086020528060005260406000206000915090508060000180546108bc906132a8565b80601f01602080910402602001604051908101604052809291908181526020018280546108e8906132a8565b80156109355780601f1061090a57610100808354040283529160200191610935565b820191906000526020600020905b81548152906001019060200180831161091857829003601f168201915b50505050509080600101805461094a906132a8565b80601f0160208091040260200160405190810160405280929190818152602001828054610976906132a8565b80156109c35780601f10610998576101008083540402835291602001916109c3565b820191906000526020600020905b8154815290600101906020018083116109a657829003601f168201915b5050505050908060020180546109d8906132a8565b80601f0160208091040260200160405190810160405280929190818152602001828054610a04906132a8565b8015610a515780601f10610a2657610100808354040283529160200191610a51565b820191906000526020600020905b815481529060010190602001808311610a3457829003601f168201915b5050505050908060030154905084565b610a72610a6c6115fa565b826116bb565b610ab1576040517f08c379a0000000000000000000000000000000000000000000000000000000008152600401610aa89061346f565b60405180910390fd5b610abc838383611750565b505050565b600a60009054906101000a900460ff1681565b600081604051602001610ae791906134cb565b6040516020818303038152906040528051906020012083604051602001610b0e91906134cb565b6040516020818303038152906040528051906020012014905092915050565b60008511610b3a57600080fd5b604051806080016040528085815260200184815260200183815260200182815250600860008781526020019081526020016000206000820151816000019081610b83919061368e565b506020820151816001019081610b99919061368e565b506040820151816002019081610baf919061368e565b506060820151816003015590505082600c9081610bcc919061368e565b505050505050565b610bef83838360405180602001604052806000815250611043565b505050565b6000610c346040518060400160405280600881526020017f54657374546573740000000000000000000000000000000000000000000000008152506113f4565b919050565b600c8054610c46906132a8565b80601f0160208091040260200160405190810160405280929190818152602001828054610c72906132a8565b8015610cbf5780601f10610c9457610100808354040283529160200191610cbf565b820191906000526020600020905b815481529060010190602001808311610ca257829003601f168201915b505050505081565b6000610cd1611a49565b6000610cdd6009611ac7565b9050610ce881611ad5565b610cf28782611b6e565b610cff8187878787610b2d565b610d09600961152f565b8091505095945050505050565b600080610d2283611d8b565b9050600073ffffffffffffffffffffffffffffffffffffffff168173ffffffffffffffffffffffffffffffffffffffff1603610d93576040517f08c379a0000000000000000000000000000000000000000000000000000000008152600401610d8a906137ac565b60405180910390fd5b80915050919050565b60008073ffffffffffffffffffffffffffffffffffffffff168273ffffffffffffffffffffffffffffffffffffffff1603610e0c576040517f08c379a0000000000000000000000000000000000000000000000000000000008152600401610e039061383e565b60405180910390fd5b600360008373ffffffffffffffffffffffffffffffffffffffff1673ffffffffffffffffffffffffffffffffffffffff168152602001908152602001600020549050919050565b610e5b611a49565b610e656000611dc8565b565b600b8054610e74906132a8565b80601f0160208091040260200160405190810160405280929190818152602001828054610ea0906132a8565b8015610eed5780601f10610ec257610100808354040283529160200191610eed565b820191906000526020600020905b815481529060010190602001808311610ed057829003601f168201915b505050505081565b6000600760009054906101000a900473ffffffffffffffffffffffffffffffffffffffff16905090565b606060018054610f2e906132a8565b80601f0160208091040260200160405190810160405280929190818152602001828054610f5a906132a8565b8015610fa75780601f10610f7c57610100808354040283529160200191610fa7565b820191906000526020600020905b815481529060010190602001808311610f8a57829003601f168201915b5050505050905090565b60606040518060400160405280600481526020017f54657374000000000000000000000000000000000000000000000000000000008152509050919050565b611002610ffb6115fa565b8383611e8e565b5050565b60606040518060400160405280600581526020017f68656c6c6f000000000000000000000000000000000000000000000000000000815250905090565b61105461104e6115fa565b836116bb565b611093576040517f08c379a000000000000000000000000000000000000000000000000000000000815260040161108a9061346f565b60405180910390fd5b61109f84848484611ffa565b50505050565b60606110b082612056565b9050919050565b6110bf611a49565b60006110cb6009611ac7565b90506110d7600961152f565b6110e18382612168565b6110eb8183612186565b505050565b6110f861274c565b60086000838152602001908152602001600020604051806080016040529081600082018054611126906132a8565b80601f0160208091040260200160405190810160405280929190818152602001828054611152906132a8565b801561119f5780601f106111745761010080835404028352916020019161119f565b820191906000526020600020905b81548152906001019060200180831161118257829003601f168201915b505050505081526020016001820180546111b8906132a8565b80601f01602080910402602001604051908101604052809291908181526020018280546111e4906132a8565b80156112315780601f1061120657610100808354040283529160200191611231565b820191906000526020600020905b81548152906001019060200180831161121457829003601f168201915b5050505050815260200160028201805461124a906132a8565b80601f0160208091040260200160405190810160405280929190818152602001828054611276906132a8565b80156112c35780601f10611298576101008083540402835291602001916112c3565b820191906000526020600020905b8154815290600101906020018083116112a657829003601f168201915b505050505081526020016003820154815250509050919050565b6000600560008473ffffffffffffffffffffffffffffffffffffffff1673ffffffffffffffffffffffffffffffffffffffff16815260200190815260200160002060008373ffffffffffffffffffffffffffffffffffffffff1673ffffffffffffffffffffffffffffffffffffffff16815260200190815260200160002060009054906101000a900460ff16905092915050565b611379611a49565b600073ffffffffffffffffffffffffffffffffffffffff168173ffffffffffffffffffffffffffffffffffffffff16036113e8576040517f08c379a00000000000000000000000000000000000000000000000000000000081526004016113df906138d0565b60405180910390fd5b6113f181611dc8565b50565b61148a8160405160240161140891906128d3565b6040516020818303038152906040527f41304fac000000000000000000000000000000000000000000000000000000007bffffffffffffffffffffffffffffffffffffffffffffffffffffffff19166020820180517bffffffffffffffffffffffffffffffffffffffffffffffffffffffff83818316178352505050506121f3565b50565b611529848484846040516024016114a794939291906138f0565b6040516020818303038152906040527f854b3496000000000000000000000000000000000000000000000000000000007bffffffffffffffffffffffffffffffffffffffffffffffffffffffff19166020820180517bffffffffffffffffffffffffffffffffffffffffffffffffffffffff83818316178352505050506121f3565b50505050565b6001816000016000828254019250508190555050565b60007f01ffc9a7000000000000000000000000000000000000000000000000000000007bffffffffffffffffffffffffffffffffffffffffffffffffffffffff1916827bffffffffffffffffffffffffffffffffffffffffffffffffffffffff1916149050919050565b6115b88161221c565b6115f7576040517f08c379a00000000000000000000000000000000000000000000000000000000081526004016115ee906137ac565b60405180910390fd5b50565b600033905090565b816004600083815260200190815260200160002060006101000a81548173ffffffffffffffffffffffffffffffffffffffff021916908373ffffffffffffffffffffffffffffffffffffffff160217905550808273ffffffffffffffffffffffffffffffffffffffff1661167583610d16565b73ffffffffffffffffffffffffffffffffffffffff167f8c5be1e5ebec7d5bd14f71427d1e84f3dd0314c0f7b2291e5b200ac8c7c3b92560405160405180910390a45050565b6000806116c783610d16565b90508073ffffffffffffffffffffffffffffffffffffffff168473ffffffffffffffffffffffffffffffffffffffff161480611709575061170881856112dd565b5b8061174757508373ffffffffffffffffffffffffffffffffffffffff1661172f8461073c565b73ffffffffffffffffffffffffffffffffffffffff16145b91505092915050565b8273ffffffffffffffffffffffffffffffffffffffff1661177082610d16565b73ffffffffffffffffffffffffffffffffffffffff16146117c6576040517f08c379a00000000000000000000000000000000000000000000000000000000081526004016117bd906139b5565b60405180910390fd5b600073ffffffffffffffffffffffffffffffffffffffff168273ffffffffffffffffffffffffffffffffffffffff1603611835576040517f08c379a000000000000000000000000000000000000000000000000000000000815260040161182c90613a47565b60405180910390fd5b611842838383600161225d565b8273ffffffffffffffffffffffffffffffffffffffff1661186282610d16565b73ffffffffffffffffffffffffffffffffffffffff16146118b8576040517f08c379a00000000000000000000000000000000000000000000000000000000081526004016118af906139b5565b60405180910390fd5b6004600082815260200190815260200160002060006101000a81549073ffffffffffffffffffffffffffffffffffffffff02191690556001600360008573ffffffffffffffffffffffffffffffffffffffff1673ffffffffffffffffffffffffffffffffffffffff168152602001908152602001600020600082825403925050819055506001600360008473ffffffffffffffffffffffffffffffffffffffff1673ffffffffffffffffffffffffffffffffffffffff16815260200190815260200160002060008282540192505081905550816002600083815260200190815260200160002060006101000a81548173ffffffffffffffffffffffffffffffffffffffff021916908373ffffffffffffffffffffffffffffffffffffffff160217905550808273ffffffffffffffffffffffffffffffffffffffff168473ffffffffffffffffffffffffffffffffffffffff167fddf252ad1be2c89b69c2b068fc378daa952ba7f163c4a11628f55a4df523b3ef60405160405180910390a4611a44838383600161229b565b505050565b611a516115fa565b73ffffffffffffffffffffffffffffffffffffffff16611a6f610ef5565b73ffffffffffffffffffffffffffffffffffffffff1614611ac5576040517f08c379a0000000000000000000000000000000000000000000000000000000008152600401611abc90613ab3565b60405180910390fd5b565b600081600001549050919050565b611b6b81604051602401611ae99190612f19565b6040516020818303038152906040527ff82c50f1000000000000000000000000000000000000000000000000000000007bffffffffffffffffffffffffffffffffffffffffffffffffffffffff19166020820180517bffffffffffffffffffffffffffffffffffffffffffffffffffffffff83818316178352505050506121f3565b50565b600073ffffffffffffffffffffffffffffffffffffffff168273ffffffffffffffffffffffffffffffffffffffff1603611bdd576040517f08c379a0000000000000000000000000000000000000000000000000000000008152600401611bd490613b1f565b60405180910390fd5b611be68161221c565b15611c26576040517f08c379a0000000000000000000000000000000000000000000000000000000008152600401611c1d90613b8b565b60405180910390fd5b611c3460008383600161225d565b611c3d8161221c565b15611c7d576040517f08c379a0000000000000000000000000000000000000000000000000000000008152600401611c7490613b8b565b60405180910390fd5b6001600360008473ffffffffffffffffffffffffffffffffffffffff1673ffffffffffffffffffffffffffffffffffffffff16815260200190815260200160002060008282540192505081905550816002600083815260200190815260200160002060006101000a81548173ffffffffffffffffffffffffffffffffffffffff021916908373ffffffffffffffffffffffffffffffffffffffff160217905550808273ffffffffffffffffffffffffffffffffffffffff16600073ffffffffffffffffffffffffffffffffffffffff167fddf252ad1be2c89b69c2b068fc378daa952ba7f163c4a11628f55a4df523b3ef60405160405180910390a4611d8760008383600161229b565b5050565b60006002600083815260200190815260200160002060009054906101000a900473ffffffffffffffffffffffffffffffffffffffff169050919050565b6000600760009054906101000a900473ffffffffffffffffffffffffffffffffffffffff16905081600760006101000a81548173ffffffffffffffffffffffffffffffffffffffff021916908373ffffffffffffffffffffffffffffffffffffffff1602179055508173ffffffffffffffffffffffffffffffffffffffff168173ffffffffffffffffffffffffffffffffffffffff167f8be0079c531659141344cd1fd0a4f28419497f9722a3daafe3b4186f6b6457e060405160405180910390a35050565b8173ffffffffffffffffffffffffffffffffffffffff168373ffffffffffffffffffffffffffffffffffffffff1603611efc576040517f08c379a0000000000000000000000000000000000000000000000000000000008152600401611ef390613bf7565b60405180910390fd5b80600560008573ffffffffffffffffffffffffffffffffffffffff1673ffffffffffffffffffffffffffffffffffffffff16815260200190815260200160002060008473ffffffffffffffffffffffffffffffffffffffff1673ffffffffffffffffffffffffffffffffffffffff16815260200190815260200160002060006101000a81548160ff0219169083151502179055508173ffffffffffffffffffffffffffffffffffffffff168373ffffffffffffffffffffffffffffffffffffffff167f17307eab39ab6107e8899845ad3d59bd9653f200f220920489ca2b5937696c3183604051611fed9190612828565b60405180910390a3505050565b612005848484611750565b612011848484846122a1565b612050576040517f08c379a000000000000000000000000000000000000000000000000000000000815260040161204790613c89565b60405180910390fd5b50505050565b6060612061826115af565b6000600660008481526020019081526020016000208054612081906132a8565b80601f01602080910402602001604051908101604052809291908181526020018280546120ad906132a8565b80156120fa5780601f106120cf576101008083540402835291602001916120fa565b820191906000526020600020905b8154815290600101906020018083116120dd57829003601f168201915b50505050509050600061210b612428565b90506000815103612120578192505050612163565b60008251111561215557808260405160200161213d929190613ca9565b60405160208183030381529060405292505050612163565b61215e8461243f565b925050505b919050565b6121828282604051806020016040528060008152506124a7565b5050565b61218f8261221c565b6121ce576040517f08c379a00000000000000000000000000000000000000000000000000000000081526004016121c590613d3f565b60405180910390fd5b806006600084815260200190815260200160002090816121ee919061368e565b505050565b60008151905060006a636f6e736f6c652e6c6f679050602083016000808483855afa5050505050565b60008073ffffffffffffffffffffffffffffffffffffffff1661223e83611d8b565b73ffffffffffffffffffffffffffffffffffffffff1614159050919050565b61226a8484846001612502565b6002600a60006101000a81548160ff021916908360058111156122905761228f612ae6565b5b021790555050505050565b50505050565b60006122c28473ffffffffffffffffffffffffffffffffffffffff16612508565b1561241b578373ffffffffffffffffffffffffffffffffffffffff1663150b7a026122eb6115fa565b8786866040518563ffffffff1660e01b815260040161230d9493929190613db4565b6020604051808303816000875af192505050801561234957506040513d601f19601f820116820180604052508101906123469190613e15565b60015b6123cb573d8060008114612379576040519150601f19603f3d011682016040523d82523d6000602084013e61237e565b606091505b5060008151036123c3576040517f08c379a00000000000000000000000000000000000000000000000000000000081526004016123ba90613c89565b60405180910390fd5b805181602001fd5b63150b7a0260e01b7bffffffffffffffffffffffffffffffffffffffffffffffffffffffff1916817bffffffffffffffffffffffffffffffffffffffffffffffffffffffff191614915050612420565b600190505b949350505050565b606060405180602001604052806000815250905090565b606061244a826115af565b6000612454612428565b90506000815111612474576040518060200160405280600081525061249f565b8061247e8461252b565b60405160200161248f929190613ca9565b6040516020818303038152906040525b915050919050565b6124b18383611b6e565b6124be60008484846122a1565b6124fd576040517f08c379a00000000000000000000000000000000000000000000000000000000081526004016124f490613c89565b60405180910390fd5b505050565b50505050565b6000808273ffffffffffffffffffffffffffffffffffffffff163b119050919050565b60606000600161253a846125f9565b01905060008167ffffffffffffffff81111561255957612558612b82565b5b6040519080825280601f01601f19166020018201604052801561258b5781602001600182028036833780820191505090505b509050600082602001820190505b6001156125ee578080600190039150507f3031323334353637383961626364656600000000000000000000000000000000600a86061a8153600a85816125e2576125e1613e42565b5b04945060008503612599575b819350505050919050565b600080600090507a184f03e93ff9f4daa797ed6e38ed64bf6a1f0100000000000000008310612657577a184f03e93ff9f4daa797ed6e38ed64bf6a1f010000000000000000838161264d5761264c613e42565b5b0492506040810190505b6d04ee2d6d415b85acef81000000008310612694576d04ee2d6d415b85acef8100000000838161268a57612689613e42565b5b0492506020810190505b662386f26fc1000083106126c357662386f26fc1000083816126b9576126b8613e42565b5b0492506010810190505b6305f5e10083106126ec576305f5e10083816126e2576126e1613e42565b5b0492506008810190505b612710831061271157612710838161270757612706613e42565b5b0492506004810190505b60648310612734576064838161272a57612729613e42565b5b0492506002810190505b600a8310612743576001810190505b80915050919050565b6040518060800160405280606081526020016060815260200160608152602001600081525090565b6000604051905090565b600080fd5b600080fd5b60007fffffffff0000000000000000000000000000000000000000000000000000000082169050919050565b6127bd81612788565b81146127c857600080fd5b50565b6000813590506127da816127b4565b92915050565b6000602082840312156127f6576127f561277e565b5b6000612804848285016127cb565b91505092915050565b60008115159050919050565b6128228161280d565b82525050565b600060208201905061283d6000830184612819565b92915050565b600081519050919050565b600082825260208201905092915050565b60005b8381101561287d578082015181840152602081019050612862565b60008484015250505050565b6000601f19601f8301169050919050565b60006128a582612843565b6128af818561284e565b93506128bf81856020860161285f565b6128c881612889565b840191505092915050565b600060208201905081810360008301526128ed818461289a565b905092915050565b6000819050919050565b612908816128f5565b811461291357600080fd5b50565b600081359050612925816128ff565b92915050565b6000602082840312156129415761294061277e565b5b600061294f84828501612916565b91505092915050565b600073ffffffffffffffffffffffffffffffffffffffff82169050919050565b600061298382612958565b9050919050565b61299381612978565b82525050565b60006020820190506129ae600083018461298a565b92915050565b6129bd81612978565b81146129c857600080fd5b50565b6000813590506129da816129b4565b92915050565b600080604083850312156129f7576129f661277e565b5b6000612a05858286016129cb565b9250506020612a1685828601612916565b9150509250929050565b6000819050919050565b612a3381612a20565b82525050565b60006080820190508181036000830152612a53818761289a565b90508181036020830152612a67818661289a565b90508181036040830152612a7b818561289a565b9050612a8a6060830184612a2a565b95945050505050565b600080600060608486031215612aac57612aab61277e565b5b6000612aba868287016129cb565b9350506020612acb868287016129cb565b9250506040612adc86828701612916565b9150509250925092565b7f4e487b7100000000000000000000000000000000000000000000000000000000600052602160045260246000fd5b60068110612b2657612b25612ae6565b5b50565b6000819050612b3782612b15565b919050565b6000612b4782612b29565b9050919050565b612b5781612b3c565b82525050565b6000602082019050612b726000830184612b4e565b92915050565b600080fd5b600080fd5b7f4e487b7100000000000000000000000000000000000000000000000000000000600052604160045260246000fd5b612bba82612889565b810181811067ffffffffffffffff82111715612bd957612bd8612b82565b5b80604052505050565b6000612bec612774565b9050612bf88282612bb1565b919050565b600067ffffffffffffffff821115612c1857612c17612b82565b5b612c2182612889565b9050602081019050919050565b82818337600083830152505050565b6000612c50612c4b84612bfd565b612be2565b905082815260208101848484011115612c6c57612c6b612b7d565b5b612c77848285612c2e565b509392505050565b600082601f830112612c9457612c93612b78565b5b8135612ca4848260208601612c3d565b91505092915050565b60008060408385031215612cc457612cc361277e565b5b600083013567ffffffffffffffff811115612ce257612ce1612783565b5b612cee85828601612c7f565b925050602083013567ffffffffffffffff811115612d0f57612d0e612783565b5b612d1b85828601612c7f565b9150509250929050565b612d2e81612a20565b8114612d3957600080fd5b50565b600081359050612d4b81612d25565b92915050565b600080600080600060a08688031215612d6d57612d6c61277e565b5b6000612d7b88828901612916565b955050602086013567ffffffffffffffff811115612d9c57612d9b612783565b5b612da888828901612c7f565b945050604086013567ffffffffffffffff811115612dc957612dc8612783565b5b612dd588828901612c7f565b935050606086013567ffffffffffffffff811115612df657612df5612783565b5b612e0288828901612c7f565b9250506080612e1388828901612d3c565b9150509295509295909350565b6000602082019050612e356000830184612a2a565b92915050565b600080600080600060a08688031215612e5757612e5661277e565b5b6000612e65888289016129cb565b955050602086013567ffffffffffffffff811115612e8657612e85612783565b5b612e9288828901612c7f565b945050604086013567ffffffffffffffff811115612eb357612eb2612783565b5b612ebf88828901612c7f565b935050606086013567ffffffffffffffff811115612ee057612edf612783565b5b612eec88828901612c7f565b9250506080612efd88828901612d3c565b9150509295509295909350565b612f13816128f5565b82525050565b6000602082019050612f2e6000830184612f0a565b92915050565b600060208284031215612f4a57612f4961277e565b5b6000612f58848285016129cb565b91505092915050565b612f6a8161280d565b8114612f7557600080fd5b50565b600081359050612f8781612f61565b92915050565b60008060408385031215612fa457612fa361277e565b5b6000612fb2858286016129cb565b9250506020612fc385828601612f78565b9150509250929050565b600067ffffffffffffffff821115612fe857612fe7612b82565b5b612ff182612889565b9050602081019050919050565b600061301161300c84612fcd565b612be2565b90508281526020810184848401111561302d5761302c612b7d565b5b613038848285612c2e565b509392505050565b600082601f83011261305557613054612b78565b5b8135613065848260208601612ffe565b91505092915050565b600080600080608085870312156130885761308761277e565b5b6000613096878288016129cb565b94505060206130a7878288016129cb565b93505060406130b887828801612916565b925050606085013567ffffffffffffffff8111156130d9576130d8612783565b5b6130e587828801613040565b91505092959194509250565b600080604083850312156131085761310761277e565b5b6000613116858286016129cb565b925050602083013567ffffffffffffffff81111561313757613136612783565b5b61314385828601612c7f565b9150509250929050565b600082825260208201905092915050565b600061316982612843565b613173818561314d565b935061318381856020860161285f565b61318c81612889565b840191505092915050565b6131a081612a20565b82525050565b600060808301600083015184820360008601526131c3828261315e565b915050602083015184820360208601526131dd828261315e565b915050604083015184820360408601526131f7828261315e565b915050606083015161320c6060860182613197565b508091505092915050565b6000602082019050818103600083015261323181846131a6565b905092915050565b600080604083850312156132505761324f61277e565b5b600061325e858286016129cb565b925050602061326f858286016129cb565b9150509250929050565b7f4e487b7100000000000000000000000000000000000000000000000000000000600052602260045260246000fd5b600060028204905060018216806132c057607f821691505b6020821081036132d3576132d2613279565b5b50919050565b7f4552433732313a20617070726f76616c20746f2063757272656e74206f776e6560008201527f7200000000000000000000000000000000000000000000000000000000000000602082015250565b600061333560218361284e565b9150613340826132d9565b604082019050919050565b6000602082019050818103600083015261336481613328565b9050919050565b7f4552433732313a20617070726f76652063616c6c6572206973206e6f7420746f60008201527f6b656e206f776e6572206f7220617070726f76656420666f7220616c6c000000602082015250565b60006133c7603d8361284e565b91506133d28261336b565b604082019050919050565b600060208201905081810360008301526133f6816133ba565b9050919050565b7f4552433732313a2063616c6c6572206973206e6f7420746f6b656e206f776e6560008201527f72206f7220617070726f76656400000000000000000000000000000000000000602082015250565b6000613459602d8361284e565b9150613464826133fd565b604082019050919050565b600060208201905081810360008301526134888161344c565b9050919050565b600081905092915050565b60006134a582612843565b6134af818561348f565b93506134bf81856020860161285f565b80840191505092915050565b60006134d7828461349a565b915081905092915050565b60008190508160005260206000209050919050565b60006020601f8301049050919050565b600082821b905092915050565b6000600883026135447fffffffffffffffffffffffffffffffffffffffffffffffffffffffffffffffff82613507565b61354e8683613507565b95508019841693508086168417925050509392505050565b6000819050919050565b600061358b613586613581846128f5565b613566565b6128f5565b9050919050565b6000819050919050565b6135a583613570565b6135b96135b182613592565b848454613514565b825550505050565b600090565b6135ce6135c1565b6135d981848461359c565b505050565b5b818110156135fd576135f26000826135c6565b6001810190506135df565b5050565b601f82111561364257613613816134e2565b61361c846134f7565b8101602085101561362b578190505b61363f613637856134f7565b8301826135de565b50505b505050565b600082821c905092915050565b600061366560001984600802613647565b1980831691505092915050565b600061367e8383613654565b9150826002028217905092915050565b61369782612843565b67ffffffffffffffff8111156136b0576136af612b82565b5b6136ba82546132a8565b6136c5828285613601565b600060209050601f8311600181146136f857600084156136e6578287015190505b6136f08582613672565b865550613758565b601f198416613706866134e2565b60005b8281101561372e57848901518255600182019150602085019450602081019050613709565b8683101561374b5784890151613747601f891682613654565b8355505b6001600288020188555050505b505050505050565b7f4552433732313a20696e76616c696420746f6b656e2049440000000000000000600082015250565b600061379660188361284e565b91506137a182613760565b602082019050919050565b600060208201905081810360008301526137c581613789565b9050919050565b7f4552433732313a2061646472657373207a65726f206973206e6f74206120766160008201527f6c6964206f776e65720000000000000000000000000000000000000000000000602082015250565b600061382860298361284e565b9150613833826137cc565b604082019050919050565b600060208201905081810360008301526138578161381b565b9050919050565b7f4f776e61626c653a206e6577206f776e657220697320746865207a65726f206160008201527f6464726573730000000000000000000000000000000000000000000000000000602082015250565b60006138ba60268361284e565b91506138c58261385e565b604082019050919050565b600060208201905081810360008301526138e9816138ad565b9050919050565b6000608082019050818103600083015261390a818761289a565b90506139196020830186612f0a565b6139266040830185612f0a565b8181036060830152613938818461289a565b905095945050505050565b7f4552433732313a207472616e736665722066726f6d20696e636f72726563742060008201527f6f776e6572000000000000000000000000000000000000000000000000000000602082015250565b600061399f60258361284e565b91506139aa82613943565b604082019050919050565b600060208201905081810360008301526139ce81613992565b9050919050565b7f4552433732313a207472616e7366657220746f20746865207a65726f2061646460008201527f7265737300000000000000000000000000000000000000000000000000000000602082015250565b6000613a3160248361284e565b9150613a3c826139d5565b604082019050919050565b60006020820190508181036000830152613a6081613a24565b9050919050565b7f4f776e61626c653a2063616c6c6572206973206e6f7420746865206f776e6572600082015250565b6000613a9d60208361284e565b9150613aa882613a67565b602082019050919050565b60006020820190508181036000830152613acc81613a90565b9050919050565b7f4552433732313a206d696e7420746f20746865207a65726f2061646472657373600082015250565b6000613b0960208361284e565b9150613b1482613ad3565b602082019050919050565b60006020820190508181036000830152613b3881613afc565b9050919050565b7f4552433732313a20746f6b656e20616c7265616479206d696e74656400000000600082015250565b6000613b75601c8361284e565b9150613b8082613b3f565b602082019050919050565b60006020820190508181036000830152613ba481613b68565b9050919050565b7f4552433732313a20617070726f766520746f2063616c6c657200000000000000600082015250565b6000613be160198361284e565b9150613bec82613bab565b602082019050919050565b60006020820190508181036000830152613c1081613bd4565b9050919050565b7f4552433732313a207472616e7366657220746f206e6f6e20455243373231526560008201527f63656976657220696d706c656d656e7465720000000000000000000000000000602082015250565b6000613c7360328361284e565b9150613c7e82613c17565b604082019050919050565b60006020820190508181036000830152613ca281613c66565b9050919050565b6000613cb5828561349a565b9150613cc1828461349a565b91508190509392505050565b7f45524337323155524953746f726167653a2055524920736574206f66206e6f6e60008201527f6578697374656e7420746f6b656e000000000000000000000000000000000000602082015250565b6000613d29602e8361284e565b9150613d3482613ccd565b604082019050919050565b60006020820190508181036000830152613d5881613d1c565b9050919050565b600081519050919050565b600082825260208201905092915050565b6000613d8682613d5f565b613d908185613d6a565b9350613da081856020860161285f565b613da981612889565b840191505092915050565b6000608082019050613dc9600083018761298a565b613dd6602083018661298a565b613de36040830185612f0a565b8181036060830152613df58184613d7b565b905095945050505050565b600081519050613e0f816127b4565b92915050565b600060208284031215613e2b57613e2a61277e565b5b6000613e3984828501613e00565b91505092915050565b7f4e487b7100000000000000000000000000000000000000000000000000000000600052601260045260246000fdfea26469706673582212203e3e16b0cc39011d52e19a93dd9d880a1f4dc9817e0c192e8a7ace70210f125864736f6c634300081100334368616e67696e67206f776e65722066726f6d20257320746f20257320666f7220736964653a2573",
  "linkReferences": {},
  "deployedLinkReferences": {}
}